{
  "_format": "hh-sol-artifact-1",
  "contractName": "HypeChain",
  "sourceName": "contracts/HypeChain.sol",
  "abi": [
    {
      "anonymous": false,
      "inputs": [
        {
          "indexed": true,
          "internalType": "uint256",
          "name": "contentId",
          "type": "uint256"
        },
        {
          "indexed": true,
          "internalType": "address",
          "name": "creator",
          "type": "address"
        },
        {
          "indexed": false,
          "internalType": "string",
          "name": "contentURI",
          "type": "string"
        },
        {
          "indexed": false,
          "internalType": "uint256",
          "name": "timestamp",
          "type": "uint256"
        }
      ],
      "name": "ContentCreated",
      "type": "event"
    },
    {
      "anonymous": false,
      "inputs": [
        {
          "indexed": true,
          "internalType": "uint256",
          "name": "shareId",
          "type": "uint256"
        },
        {
          "indexed": true,
          "internalType": "uint256",
          "name": "contentId",
          "type": "uint256"
        },
        {
          "indexed": true,
          "internalType": "address",
          "name": "user",
          "type": "address"
        },
        {
          "indexed": false,
          "internalType": "string",
          "name": "engagementType",
          "type": "string"
        },
        {
          "indexed": false,
          "internalType": "uint256",
          "name": "timestamp",
          "type": "uint256"
        }
      ],
      "name": "EngagementRecorded",
      "type": "event"
    },
    {
      "anonymous": false,
      "inputs": [
        {
          "indexed": true,
          "internalType": "uint256",
          "name": "shareId",
          "type": "uint256"
        },
        {
          "indexed": true,
          "internalType": "uint256",
          "name": "contentId",
          "type": "uint256"
        },
        {
          "indexed": true,
          "internalType": "address",
          "name": "sharer",
          "type": "address"
        },
        {
          "indexed": false,
          "internalType": "uint256",
          "name": "parentShareId",
          "type": "uint256"
        },
        {
          "indexed": false,
          "internalType": "uint256",
          "name": "depth",
          "type": "uint256"
        },
        {
          "indexed": false,
          "internalType": "uint256",
          "name": "timestamp",
          "type": "uint256"
        }
      ],
      "name": "ShareCreated",
      "type": "event"
    },
    {
      "inputs": [
        {
          "internalType": "uint256",
          "name": "",
          "type": "uint256"
        }
      ],
      "name": "contentToCreatorShare",
      "outputs": [
        {
          "internalType": "uint256",
          "name": "",
          "type": "uint256"
        }
      ],
      "stateMutability": "view",
      "type": "function"
    },
    {
      "inputs": [
        {
          "internalType": "uint256",
          "name": "",
          "type": "uint256"
        }
      ],
      "name": "contents",
      "outputs": [
        {
          "internalType": "address",
          "name": "creator",
          "type": "address"
        },
        {
          "internalType": "string",
          "name": "contentURI",
          "type": "string"
        },
        {
          "internalType": "uint256",
          "name": "totalShares",
          "type": "uint256"
        },
        {
          "internalType": "uint256",
          "name": "timestamp",
          "type": "uint256"
        },
        {
          "internalType": "bool",
          "name": "exists",
          "type": "bool"
        }
      ],
      "stateMutability": "view",
      "type": "function"
    },
    {
      "inputs": [
        {
          "internalType": "string",
          "name": "contentURI",
          "type": "string"
        }
      ],
      "name": "createContent",
      "outputs": [
        {
          "internalType": "uint256",
          "name": "contentId",
          "type": "uint256"
        },
        {
          "internalType": "uint256",
          "name": "shareId",
          "type": "uint256"
        }
      ],
      "stateMutability": "nonpayable",
      "type": "function"
    },
    {
      "inputs": [
        {
          "internalType": "uint256",
          "name": "contentId",
          "type": "uint256"
        },
        {
          "internalType": "uint256",
          "name": "parentShareId",
          "type": "uint256"
        }
      ],
      "name": "createShare",
      "outputs": [
        {
          "internalType": "uint256",
          "name": "shareId",
          "type": "uint256"
        }
      ],
      "stateMutability": "nonpayable",
      "type": "function"
    },
    {
      "inputs": [
        {
          "internalType": "uint256",
          "name": "contentId",
          "type": "uint256"
        }
      ],
      "name": "getContent",
      "outputs": [
        {
          "internalType": "address",
          "name": "creator",
          "type": "address"
        },
        {
          "internalType": "string",
          "name": "contentURI",
          "type": "string"
        },
        {
          "internalType": "uint256",
          "name": "totalShares",
          "type": "uint256"
        },
        {
          "internalType": "uint256",
          "name": "timestamp",
          "type": "uint256"
        }
      ],
      "stateMutability": "view",
      "type": "function"
    },
    {
      "inputs": [],
      "name": "getCounters",
      "outputs": [
        {
          "internalType": "uint256",
          "name": "totalContents",
          "type": "uint256"
        },
        {
          "internalType": "uint256",
          "name": "totalShares",
          "type": "uint256"
        }
      ],
      "stateMutability": "view",
      "type": "function"
    },
    {
      "inputs": [
        {
          "internalType": "uint256",
          "name": "shareId",
          "type": "uint256"
        }
      ],
      "name": "getShare",
      "outputs": [
        {
          "internalType": "uint256",
          "name": "contentId",
          "type": "uint256"
        },
        {
          "internalType": "address",
          "name": "sharer",
          "type": "address"
        },
        {
          "internalType": "uint256",
          "name": "parentShareId",
          "type": "uint256"
        },
        {
          "internalType": "uint256",
          "name": "depth",
          "type": "uint256"
        },
        {
          "internalType": "uint256",
          "name": "timestamp",
          "type": "uint256"
        }
      ],
      "stateMutability": "view",
      "type": "function"
    },
    {
      "inputs": [
        {
          "internalType": "uint256",
          "name": "shareId",
          "type": "uint256"
        },
        {
          "internalType": "string",
          "name": "engagementType",
          "type": "string"
        }
      ],
      "name": "recordEngagement",
      "outputs": [],
      "stateMutability": "nonpayable",
      "type": "function"
    },
    {
      "inputs": [
        {
          "internalType": "uint256",
          "name": "",
          "type": "uint256"
        }
      ],
      "name": "shares",
      "outputs": [
        {
          "internalType": "uint256",
          "name": "contentId",
          "type": "uint256"
        },
        {
          "internalType": "address",
          "name": "sharer",
          "type": "address"
        },
        {
          "internalType": "uint256",
          "name": "parentShareId",
          "type": "uint256"
        },
        {
          "internalType": "uint256",
          "name": "depth",
          "type": "uint256"
        },
        {
          "internalType": "uint256",
          "name": "timestamp",
          "type": "uint256"
        },
        {
          "internalType": "bool",
          "name": "exists",
          "type": "bool"
        }
      ],
      "stateMutability": "view",
      "type": "function"
    }
  ],
  "bytecode": "0x608060405234801561001057600080fd5b5061180b806100206000396000f3fe608060405234801561001057600080fd5b50600436106100935760003560e01c806357a858fc1161006657806357a858fc1461015c57806357c99c2c146101915780636abb871f146101ad578063b5ecf912146101cc578063cfb5a5f81461020057610093565b80630b7ad54c14610098578063295ca078146100cb5780633bbc7b0b146100fb578063497cc8411461012b575b600080fd5b6100b260048036038101906100ad9190610d4f565b610234565b6040516100c29493929190610e5c565b60405180910390f35b6100e560048036038101906100e09190610d4f565b6103fb565b6040516100f29190610ea8565b60405180910390f35b61011560048036038101906101109190610ec3565b610413565b6040516101229190610ea8565b60405180910390f35b61014560048036038101906101409190611038565b6106a4565b604051610153929190611081565b60405180910390f35b61017660048036038101906101719190610d4f565b610978565b604051610188969594939291906110c5565b60405180910390f35b6101ab60048036038101906101a69190611126565b6109e1565b005b6101b5610ab6565b6040516101c3929190611081565b60405180910390f35b6101e660048036038101906101e19190610d4f565b610ac7565b6040516101f7959493929190611182565b60405180910390f35b61021a60048036038101906102159190610d4f565b610bb2565b60405161022b9594939291906111dc565b60405180910390f35b600060606000806002600086815260200190815260200160002060040160009054906101000a900460ff1661029e576040517f08c379a00000000000000000000000000000000000000000000000000000000081526004016102959061127b565b60405180910390fd5b6000600260008781526020019081526020016000206040518060a00160405290816000820160009054906101000a900473ffffffffffffffffffffffffffffffffffffffff1673ffffffffffffffffffffffffffffffffffffffff1673ffffffffffffffffffffffffffffffffffffffff168152602001600182018054610324906112ca565b80601f0160208091040260200160405190810160405280929190818152602001828054610350906112ca565b801561039d5780601f106103725761010080835404028352916020019161039d565b820191906000526020600020905b81548152906001019060200180831161038057829003601f168201915b5050505050815260200160028201548152602001600382015481526020016004820160009054906101000a900460ff161515151581525050905080600001518160200151826040015183606001519450945094509450509193509193565b60046020528060005260406000206000915090505481565b60006002600084815260200190815260200160002060040160009054906101000a900460ff16610478576040517f08c379a000000000000000000000000000000000000000000000000000000000815260040161046f9061127b565b60405180910390fd5b60008214806104a757506003600083815260200190815260200160002060050160009054906101000a900460ff165b6104e6576040517f08c379a00000000000000000000000000000000000000000000000000000000081526004016104dd90611347565b60405180910390fd5b600080831461051557600160036000858152602001908152602001600020600301546105129190611396565b90505b60016000815480929190610528906113ca565b919050555060015491506040518060c001604052808581526020013373ffffffffffffffffffffffffffffffffffffffff16815260200184815260200182815260200142815260200160011515815250600360008481526020019081526020016000206000820151816000015560208201518160010160006101000a81548173ffffffffffffffffffffffffffffffffffffffff021916908373ffffffffffffffffffffffffffffffffffffffff16021790555060408201518160020155606082015181600301556080820151816004015560a08201518160050160006101000a81548160ff021916908315150217905550905050600260008581526020019081526020016000206002016000815480929190610644906113ca565b91905055503373ffffffffffffffffffffffffffffffffffffffff1684837f5d85cd30d305cf222245298fb8a87f69ec4e3b5882843df8139421fb0ad8357986854260405161069593929190611412565b60405180910390a45092915050565b6000806000808154809291906106b9906113ca565b919050555060005491506040518060a001604052803373ffffffffffffffffffffffffffffffffffffffff16815260200184815260200160008152602001428152602001600115158152506002600084815260200190815260200160002060008201518160000160006101000a81548173ffffffffffffffffffffffffffffffffffffffff021916908373ffffffffffffffffffffffffffffffffffffffff160217905550602082015181600101908161077391906115f5565b50604082015181600201556060820151816003015560808201518160040160006101000a81548160ff021916908315150217905550905050600160008154809291906107be906113ca565b919050555060015490506040518060c001604052808381526020013373ffffffffffffffffffffffffffffffffffffffff168152602001600081526020016000815260200142815260200160011515815250600360008381526020019081526020016000206000820151816000015560208201518160010160006101000a81548173ffffffffffffffffffffffffffffffffffffffff021916908373ffffffffffffffffffffffffffffffffffffffff16021790555060408201518160020155606082015181600301556080820151816004015560a08201518160050160006101000a81548160ff0219169083151502179055509050508060046000848152602001908152602001600020819055503373ffffffffffffffffffffffffffffffffffffffff16827f412c27a7318aac9979dd1ff80a6b3eb3bc35c9a8c22b7b75d7959605180ab9ac85426040516109169291906116c7565b60405180910390a33373ffffffffffffffffffffffffffffffffffffffff1682827f5d85cd30d305cf222245298fb8a87f69ec4e3b5882843df8139421fb0ad835796000804260405161096b93929190611732565b60405180910390a4915091565b60036020528060005260406000206000915090508060000154908060010160009054906101000a900473ffffffffffffffffffffffffffffffffffffffff16908060020154908060030154908060040154908060050160009054906101000a900460ff16905086565b6003600083815260200190815260200160002060050160009054906101000a900460ff16610a44576040517f08c379a0000000000000000000000000000000000000000000000000000000008152600401610a3b906117b5565b60405180910390fd5b6000600360008481526020019081526020016000206000015490503373ffffffffffffffffffffffffffffffffffffffff1681847f3fcb51e9f9d523518ca2368a2e7cef34a115976542c63abbcc680e730e4dd50d8542604051610aa99291906116c7565b60405180910390a4505050565b600080600054600154915091509091565b60026020528060005260406000206000915090508060000160009054906101000a900473ffffffffffffffffffffffffffffffffffffffff1690806001018054610b10906112ca565b80601f0160208091040260200160405190810160405280929190818152602001828054610b3c906112ca565b8015610b895780601f10610b5e57610100808354040283529160200191610b89565b820191906000526020600020905b815481529060010190602001808311610b6c57829003601f168201915b5050505050908060020154908060030154908060040160009054906101000a900460ff16905085565b60008060008060006003600087815260200190815260200160002060050160009054906101000a900460ff16610c1d576040517f08c379a0000000000000000000000000000000000000000000000000000000008152600401610c14906117b5565b60405180910390fd5b6000600360008881526020019081526020016000206040518060c0016040529081600082015481526020016001820160009054906101000a900473ffffffffffffffffffffffffffffffffffffffff1673ffffffffffffffffffffffffffffffffffffffff1673ffffffffffffffffffffffffffffffffffffffff1681526020016002820154815260200160038201548152602001600482015481526020016005820160009054906101000a900460ff161515151581525050905080600001518160200151826040015183606001518460800151955095509550955095505091939590929450565b6000604051905090565b600080fd5b600080fd5b6000819050919050565b610d2c81610d19565b8114610d3757600080fd5b50565b600081359050610d4981610d23565b92915050565b600060208284031215610d6557610d64610d0f565b5b6000610d7384828501610d3a565b91505092915050565b600073ffffffffffffffffffffffffffffffffffffffff82169050919050565b6000610da782610d7c565b9050919050565b610db781610d9c565b82525050565b600081519050919050565b600082825260208201905092915050565b60005b83811015610df7578082015181840152602081019050610ddc565b60008484015250505050565b6000601f19601f8301169050919050565b6000610e1f82610dbd565b610e298185610dc8565b9350610e39818560208601610dd9565b610e4281610e03565b840191505092915050565b610e5681610d19565b82525050565b6000608082019050610e716000830187610dae565b8181036020830152610e838186610e14565b9050610e926040830185610e4d565b610e9f6060830184610e4d565b95945050505050565b6000602082019050610ebd6000830184610e4d565b92915050565b60008060408385031215610eda57610ed9610d0f565b5b6000610ee885828601610d3a565b9250506020610ef985828601610d3a565b9150509250929050565b600080fd5b600080fd5b7f4e487b7100000000000000000000000000000000000000000000000000000000600052604160045260246000fd5b610f4582610e03565b810181811067ffffffffffffffff82111715610f6457610f63610f0d565b5b80604052505050565b6000610f77610d05565b9050610f838282610f3c565b919050565b600067ffffffffffffffff821115610fa357610fa2610f0d565b5b610fac82610e03565b9050602081019050919050565b82818337600083830152505050565b6000610fdb610fd684610f88565b610f6d565b905082815260208101848484011115610ff757610ff6610f08565b5b611002848285610fb9565b509392505050565b600082601f83011261101f5761101e610f03565b5b813561102f848260208601610fc8565b91505092915050565b60006020828403121561104e5761104d610d0f565b5b600082013567ffffffffffffffff81111561106c5761106b610d14565b5b6110788482850161100a565b91505092915050565b60006040820190506110966000830185610e4d565b6110a36020830184610e4d565b9392505050565b60008115159050919050565b6110bf816110aa565b82525050565b600060c0820190506110da6000830189610e4d565b6110e76020830188610dae565b6110f46040830187610e4d565b6111016060830186610e4d565b61110e6080830185610e4d565b61111b60a08301846110b6565b979650505050505050565b6000806040838503121561113d5761113c610d0f565b5b600061114b85828601610d3a565b925050602083013567ffffffffffffffff81111561116c5761116b610d14565b5b6111788582860161100a565b9150509250929050565b600060a0820190506111976000830188610dae565b81810360208301526111a98187610e14565b90506111b86040830186610e4d565b6111c56060830185610e4d565b6111d260808301846110b6565b9695505050505050565b600060a0820190506111f16000830188610e4d565b6111fe6020830187610dae565b61120b6040830186610e4d565b6112186060830185610e4d565b6112256080830184610e4d565b9695505050505050565b7f436f6e74656e7420646f6573206e6f7420657869737400000000000000000000600082015250565b6000611265601683610dc8565b91506112708261122f565b602082019050919050565b6000602082019050818103600083015261129481611258565b9050919050565b7f4e487b7100000000000000000000000000000000000000000000000000000000600052602260045260246000fd5b600060028204905060018216806112e257607f821691505b6020821081036112f5576112f461129b565b5b50919050565b7f506172656e7420736861726520646f6573206e6f742065786973740000000000600082015250565b6000611331601b83610dc8565b915061133c826112fb565b602082019050919050565b6000602082019050818103600083015261136081611324565b9050919050565b7f4e487b7100000000000000000000000000000000000000000000000000000000600052601160045260246000fd5b60006113a182610d19565b91506113ac83610d19565b92508282019050808211156113c4576113c3611367565b5b92915050565b60006113d582610d19565b91507fffffffffffffffffffffffffffffffffffffffffffffffffffffffffffffffff820361140757611406611367565b5b600182019050919050565b60006060820190506114276000830186610e4d565b6114346020830185610e4d565b6114416040830184610e4d565b949350505050565b60008190508160005260206000209050919050565b60006020601f8301049050919050565b600082821b905092915050565b6000600883026114ab7fffffffffffffffffffffffffffffffffffffffffffffffffffffffffffffffff8261146e565b6114b5868361146e565b95508019841693508086168417925050509392505050565b6000819050919050565b60006114f26114ed6114e884610d19565b6114cd565b610d19565b9050919050565b6000819050919050565b61150c836114d7565b611520611518826114f9565b84845461147b565b825550505050565b600090565b611535611528565b611540818484611503565b505050565b5b818110156115645761155960008261152d565b600181019050611546565b5050565b601f8211156115a95761157a81611449565b6115838461145e565b81016020851015611592578190505b6115a661159e8561145e565b830182611545565b50505b505050565b600082821c905092915050565b60006115cc600019846008026115ae565b1980831691505092915050565b60006115e583836115bb565b9150826002028217905092915050565b6115fe82610dbd565b67ffffffffffffffff81111561161757611616610f0d565b5b61162182546112ca565b61162c828285611568565b600060209050601f83116001811461165f576000841561164d578287015190505b61165785826115d9565b8655506116bf565b601f19841661166d86611449565b60005b8281101561169557848901518255600182019150602085019450602081019050611670565b868310156116b257848901516116ae601f8916826115bb565b8355505b6001600288020188555050505b505050505050565b600060408201905081810360008301526116e18185610e14565b90506116f06020830184610e4d565b9392505050565b6000819050919050565b600061171c611717611712846116f7565b6114cd565b610d19565b9050919050565b61172c81611701565b82525050565b60006060820190506117476000830186611723565b6117546020830185611723565b6117616040830184610e4d565b949350505050565b7f536861726520646f6573206e6f74206578697374000000000000000000000000600082015250565b600061179f601483610dc8565b91506117aa82611769565b602082019050919050565b600060208201905081810360008301526117ce81611792565b905091905056fea2646970667358221220457e43b52dba4590d576e2654f1113d394109f6d42240f8923542e4edc3a453164736f6c63430008140033",
  "linkReferences": {},
  "deployedLinkReferences": {}
}